:100000002050002085130100CB740000F37B00001A
:1000100000000000000000000000000000000000E0
:10002000000000000000000000000000677C0000ED
:100030000000000000000000C1B70000218800009F
:1000400073900000C7950000156200000D2D0000A0
:10005000FBB80000F50C010073B90000EBD80000FC
:100060007BE00000FF0E01000B0F0100252D0000BA
:100070001B1601007D1601007F160100811601008C
:1000800083160100851601008716010071330000F8
:10009000891601008B1601008D1601008F160100D4
:1000A00091160100931601009516010097160100A4
:1000B000991601009B1601009D1601009F16010074
:1000C0000268CA401000C007C00F704738B504006E
:1000D0000D002000C0B2002801D185483CE020007E
:1000E000C0B2012801D1834836E02000C0B2022806
:1000F00001D1814830E02000C0B2032801D17F48FF
:100100002AE02000C0B2042801D1A04824E0200049
:10011000C0B2052801D13F201EE02000C0B2062851
:1001200001D1002018E02000C0B2072801D1002032
:1001300012E02000C0B2082801D100200CE020000D
:10014000C0B2092801D1002006E02000C0B20A2870
:1001500001D1002000E000202841C00703D48C49D1
:100160008C4801F0DFF929008B482200D2B23023FD
:100170005A4380181C30FFF7A3FF32BDF1B582B09F
:100180000C0017001E00089D2800C0B2019030002E
:10019000C0B200903B00DBB2220021006846007A2A
:1001A00001F0A8FAF7BD1CB50400200080B20128B8
:1001B00002D002280CD016E0002001907748009071
:1001C0005F23774A77497848006801F0FBFD0AE031
:1001D0000021734800F094F801F01AF800F06FF86D
:1001E00000F092FCFFE713BD70471CB5040020002F
:1001F000C0B20D281FD10D210420FFF767FF002892
:100200000ED06948006801F079FD0021644800F0D3
:1002100077F800F0FDFF00F052F800F075FC0AE0FE
:10022000002001905D4800905F235D4A5D495E4873
:10023000006801F0C7FD13BD70B5982400255B4E22
:100240002A002100300002F0AFFC0220584908705B
:10025000012058490870012057490870012057496A
:10026000087070BD10B588B0002401A854491C2244
:1002700002F0DAFC01A94C48006801F029FC4A4868
:100280000068002802D10020C043040002F008FDED
:10029000012302220D21042001F0E6FA49490D2034
:1002A00002F00CFD01200090012301220D21042009
:1002B000FFF764FFFFF7C0FF200008B010BD00B5D6
:1002C000D4480078022806D100203C49087000205C
:1002D0003949087005E00120384908700120364985
:1002E000087000203549087000203349087000BDAF
:1002F0007FF70000F8790000FFFF0000FF01000019
:1003000070B505000C002000C0B2281886783000B7
:10031000C0B218280CD01A2810D01B2814D041289D
:1003200018D051281CD0D02823D0DA2827D02CE090
:100330002100C9B2280000F047F826E02100C9B228
:10034000280000F06BF920E02100C9B2280000F07D
:10035000EFFA1AE02100C9B2280000F0D5F914E044
:100360002100C9B2280000F0CEFA0320AA49086093
:100370000BE02100C9B2280000F06AFB05E0210073
:10038000C9B2280000F070FBFFE770BDF0FF00006D
:1003900057030000500C010000800840E9010000F4
:1003A000CC4800202C4900200805002050440020A3
:1003B000AA440020AB440020AD440020AC440020FF
:1003C000440F0100EB010000F3B581B005000020EF
:1003D0006946887000206946487000260024002085
:1003E0006946087000276846697901706846007A96
:1003F0006946097840182818407969464870684667
:10040000007A694609784218121D92B26846017A4C
:10041000891C89B2280000F0EBFE694688706846A6
:10042000407869468978884200D0F2E0761C761CD4
:10043000761C761C3000C0B2285CAF490870761C70
:1004400068463100C9B2695C0170761C6846007864
:100450003338052102F09BFC070000210800C0B2E0
:10046000102809D23000C0B2285CA44A0B00DBB2CD
:10047000D054761C491CF1E73000C0B2285CA04A79
:100480001070761C30000200D2B2AA5C9D4B1A702C
:10049000401C00221100C9B210290AD20100C9B2C1
:1004A000695C964B1400E4B21B191974401C521C71
:1004B000F0E700210A00D2B2102A0BD20200D2B219
:1004C000AA5C8E4B0C00E4B21B1920241A55401C68
:1004D000491CEFE7002421003A00C9B2D2B2914290
:1004E0004CD20100C9B2695C844A2300DBB2082601
:1004F0007343D2183723D154401C0100C9B2695C40
:100500007E4A2300DBB208267343D2183823D15425
:10051000401C0100C9B2695CC9B20909774A2300CD
:10052000DBB208267343D2183B23D1540100C9B271
:10053000695C0907090F714A2300DBB2082673437F
:10054000D2183C23D154401C0100C9B2695C6B4AEB
:100550002300DBB208267343D2183923D154401C40
:100560000100C9B2695C654A2300DBB20826734307
:10057000D2183A23D154401C641CACE73900C9B2EC
:1005800000293FD100210C002100C9B207293BD22C
:1005900000215A4A2300DBB208267343D2183B23BA
:1005A000D15456492200D2B208235A43891837221F
:1005B000895C142912D10021504A2300DBB208269D
:1005C0007343D2183923D154D1214C4A2300DBB2D2
:1005D00008267343D2183A23D15411E00021474A28
:1005E0002300DBB208267343D2183923D1540021EB
:1005F000424A2300DBB208267343D2183A23D1546F
:10060000641CC1E7C9490F70401C401C401C060017
:10061000761CF7BD2A2A0020E84B0020F8B506001A
:100620000F00002069468870002069464870002548
:10063000002400206946087068467179017038000E
:10064000C0B2694609784018301840796946487048
:100650003800C0B2694609784218121D92B23900BA
:10066000C9B2891C89B2300000F0C2FD69468870A9
:10067000684640786946897888423BD16D1C6D1C7C
:100680006D1C6D1C2800C0B2305C1B4908706D1CCD
:1006900068462900C9B2715C01706D1C0020010020
:1006A000C9B2102909D22900C9B2715C134A0300EA
:1006B000DBB2D1546D1C401CF1E72900C9B2715C5A
:1006C0000F4A11706D1C0024200069460978C0B2E1
:1006D00088420BD22800C0B2305C08492200D2B256
:1006E00089186F2288546D1C641CEDE76D1C6D1C0D
:1006F0006D1C6D1CF1BD0000A84300207843002054
:10070000A9430020AA430020F3B581B005000020D2
:1007100069464870002069460870002600240020C1
:100720006946887000206946C8706F796846007A0B
:100730003900C9B2401828184079694608706846DF
:10074000007A3900C9B24218121D92B26846017A85
:10075000891C89B2280000F04BFD69464870684644
:10076000007869464978884200D0CBE0761C761C38
:10077000761C761C68463100C9B2695C8170761CB3
:100780003000C0B2285C0700761C684680780028DC
:1007900011D0022836D021D304285CD046D30628B5
:1007A00075D06DD3082800D19BE000D284E00928E1
:1007B00000D19DE0A2E00020040020003900C0B27A
:1007C000C9B2884209D23000C0B2285C9F492200D9
:1007D000D2B28854761C641CEFE78FE0002004003E
:1007E00020003900C0B2C9B288420AD23000C0B27B
:1007F000285C96492200D2B289180874761C641CC1
:10080000EEE77BE00020040020003900C0B2C9B24E
:1008100088420AD23000C0B2285C8C492200D2B291
:1008200089180875761C641CEEE767E00020040058
:1008300020003900C0B2C9B288420BD23000C0B229
:10084000285C82492200D2B2891824228854761C5E
:10085000641CEDE752E00020040020003900C0B223
:10086000C9B288420BD23000C0B2285C774922005E
:10087000D2B2891828228854761C641CEDE73DE02A
:100880003000C0B2285C9F490870761C36E000201A
:10089000040020003900C0B2C9B288420BD2300037
:1008A000C0B2285C69492200D2B28918312288542A
:1008B000761C641CEDE721E00020040020003900D4
:1008C000C0B2C9B288420BD23000C0B2285C5F49C6
:1008D0002200D2B2891845228854761C641CEDE7A8
:1008E0000CE03000C0B2285CB2490870761C05E00C
:1008F0003000C0B2285CB0490870761C761C761CAB
:10090000761C761CF7BD10B40022521C521C521CDF
:10091000521C1300DBB2C35CA84C2370521C521C47
:10092000521C0123A64C237010BC7047AE4300201C
:10093000F8B505000F000020694688700020694660
:1009400048700026002400206946087068466979CE
:1009500001703800C0B269460978401828184079FB
:10096000694648703800C0B2694609784218121DBD
:1009700092B23900C9B2891C89B2280000F038FC53
:1009800069468870684640786946897888425BD1B4
:10099000761C761C761C761C3000C0B2285C894917
:1009A0000870761C68463100C9B2695C0170761C1B
:1009B00000200100C9B2102909D23100C9B2695C16
:1009C000814A0300DBB2D154761C401CF1E73100B0
:1009D000C9B2695C7D4A1170761C3100C9B2695C8C
:1009E0007B4A1170761C00210800C0B210280AD280
:1009F0003000C0B2285C744A0B00DBB2D21810740D
:100A0000761C491CF0E700242000C0B210280BD24D
:100A10003000C0B2285C6C492200D2B28918202272
:100A20008854761C641CEFE73000C0B2285CC549CE
:100A30000870761C3000C0B2285CC3490870761C70
:100A4000761C761C761C761CF1BD000050440020FC
:100A500070B505000C000026761C761C761C761CF2
:100A6000761C00F00DF870BD70B505000C00002676
:100A7000761C761C761C761C761C00F03DF870BD4A
:100A800000B5B2480068002831D1B148007800288C
:100A900006D10120AD4908600120AD49087026E06B
:100AA000AC480078002806D10220A849086001203F
:100AB000A84908701BE042480078002806D10320AE
:100AC000A249086001203E49087010E0A248007861
:100AD000012806D104209D49086000209E49087025
:100AE00005E000209949086000209A49087097485D
:100AF00000689A49086000BD9848006893490860FA
:100B00007047000080440020F8B5904800680090CD
:100B10000026009800283AD002281ED003D30428CB
:100B200028D00DD340E05F250024E24F22002900A9
:100B3000380002F039F8DF4800F04CF8060033E0E6
:100B40005F250024DB4F22002900380002F02CF83A
:100B5000D84800F0B7F9060026E05F250024D54FFD
:100B600022002900380002F01FF8D24800F0F8F8FF
:100B7000060019E05F250024CE4F2200290038002E
:100B800002F012F8CB4800F0CAFA06000CE05F252C
:100B90000024C84F22002900380002F005F8C5489B
:100BA00000F09CFA0600FFE700206849086030006A
:100BB000C0B2F2BDA9440020AA440020A005002034
:100BC000174C0020A843002078430020A9430020B0
:100BD000AA430020F8B504000020002100272422A9
:100BE0000300DBB2E254401C24220300DBB2E254D7
:100BF000401C90220300DBB2E254401CCF4A127822
:100C00000300DBB2E254401CAB4A12780300DBB2B3
:100C1000E254401CA94A12780300DBB2E254401CA3
:100C20005A220300DBB2E254401C5A220300DBB21A
:100C3000E254401C00221100C9B2102909D2A04977
:100C40001300DBB2C95C0300DBB2E154401C521C50
:100C5000F1E700252900C9B210290BD298492A00D2
:100C6000D2B289183122895C0200D2B2A154401C50
:100C70006D1CEFE743210200D2B2A154401C432176
:100C80000200D2B2A154401C43210200D2B2A154AE
:100C9000401C43210200D2B2A154401C3121020069
:100CA000D2B2A154401C32210200D2B2A154401C45
:100CB00033210200D2B2A154401C34210200D2B22E
:100CC000A154401C45210200D2B2A154401C352140
:100CD0000200D2B2A154401C36210200D2B2A1546B
:100CE000401C37210200D2B2A154401C382102001E
:100CF000D2B2A154401C57210200D2B2A154401CD0
:100D00006946087068460678761C3000C0B2821EBC
:100D100092B20221200000F06BFA69460978605413
:100D200000203100C9B26054761C23203100C9B2C2
:100D30006054761C23203100C9B26054761C701EAA
:100D4000C0B2F2BDAD430020AC430020E84B002010
:100D5000154C0020164C0020AF440020EC4B002026
:100D6000F8B5040000210020002724220B00DBB28C
:100D7000E254491C24220B00DBB2E254491C9122AC
:100D80000B00DBB2E254491C6C4A12780B00DBB258
:100D9000E254491C484A12780B00DBB2E254491C69
:100DA000464A12780B00DBB2E254491C5A220B006F
:100DB000DBB2E254491C5A220B00DBB2E254491C5C
:100DC000C54A12780B00DBB2E254491C002528000A
:100DD000C0B210280BD23A482A00D2B28018312271
:100DE000805C0A00D2B2A054491C6D1CEFE7312090
:100DF0000A00D2B2A054491C32200A00D2B2A05438
:100E0000491C33200A00D2B2A054491C34200A00E5
:100E1000D2B2A054491C45200A00D2B2A054491CA9
:100E200035200A00D2B2A054491C36200A00D2B2A2
:100E3000A054491C37200A00D2B2A054491C3820C3
:100E40000A00D2B2A054491C57200A00D2B2A054C2
:100E5000491C01200A00D2B2A054491C00200A00FB
:100E6000D2B2A054491C00200A00D2B2A054491C9E
:100E70006846017068460678761C3000C0B2821E53
:100E800092B20221200000F0B3F96946097860545B
:100E900000203100C9B26054761C23203100C9B251
:100EA0006054761C23203100C9B26054761C701E39
:100EB000C0B2F2BD2C490020AC440020AD4400205B
:100EC00050440020F8B5050000200024002724210C
:100ED0000200D2B2A954401C24210200D2B2A9546B
:100EE000401C51210200D2B2A954401C1349097878
:100EF0000200D2B2A954401CB74909780200D2B20C
:100F0000A954401C00210200D2B2A954401CB2498D
:100F10000978002914D0022939D024D304295FD0BC
:100F200049D306297AD070D3082900D1A0E000D295
:100F300089E0092900D1A4E0ABE000BFAB44002068
:100F400000210C002100C9B2102909D2A3492200B6
:100F5000D2B2895C0200D2B2A954401C641CF1E7F1
:100F60001121697195E000210C002100C9B204290A
:100F70000AD29A492200D2B28918097C0200D2B260
:100F8000A954401C641CF0E70521697181E000212F
:100F90000C002100C9B210290AD290492200D2B215
:100FA0008918097D0200D2B2A954401C641CF0E7E4
:100FB000112169716DE000210C002100C9B20429E2
:100FC0000BD286492200D2B289182422895C020001
:100FD000D2B2A954401C641CEFE70521697158E0A6
:100FE00000210C002100C9B208290BD27B49220044
:100FF000D2B289182822895C0200D2B2A954401CBE
:10100000641CEFE70921697143E075490978020022
:10101000D2B2A954401C022169713AE000210C00AF
:101020002100C9B214290BD26C492200D2B289180E
:101030003122895C0200D2B2A954401C641CEFE743
:101040001521697125E000210C002100C9B2142985
:101050000BD262492200D2B289184522895C020073
:10106000D2B2A954401C641CEFE71521697110E04D
:101070005C4909780200D2B2A954401C022169716E
:1010800007E0594909780200D2B2A954401C022154
:1010900069716946087068460678761C3000C0B2EF
:1010A000821E92B20221280000F0A2F86946097857
:1010B000685400203100C9B26854761C23203100E6
:1010C000C9B26854761C23203100C9B26854761C1A
:1010D000701EC0B2F2BD0000AE44002010B401008A
:1010E0000023002224201C00E4B208555B1C2420AD
:1010F0001C00E4B208555B1CDD201C00E4B208555E
:101100005B1C23201C00E4B208555B1C23201C0040
:10111000E4B208555B1C581EC0B210BC7047F8B54D
:10112000050000210020002724220B00DBB2EA5436
:10113000491C24220B00DBB2EA54491C9A220B0002
:10114000DBB2EA54491C294A12780B00DBB2EA549C
:10115000491C254A12780B00DBB2EA54491C2F22A5
:101160000B00DBB2EA54491C00242000C0B22D2839
:101170000BD21A482200D2B280186022805C0A008A
:10118000D2B2A854491C641CEFE700200A00D2B276
:10119000A854491C6846017068460678761C3000E1
:1011A000C0B2821E92B20221280000F021F86946E6
:1011B0000978685400203100C9B26854761C232095
:1011C0003100C9B26854761C23203100C9B268547A
:1011D000761C701EC0B2F2BDA00500205044002055
:1011E00080440020A9440020AA440020AB440020F1
:1011F00030B50300002000250C00A4B21500ADB2EC
:10120000AC4203DA1D5D4019641CF7E7C0B230BD83
:10121000F0B587B00024002069460871002500263B
:10122000AE480078012800D056E102F05BF80600D5
:10123000AB48007801280ED1AA480078002844D095
:101240000020A74908700120694608710027A648B8
:10125000C0C0083839E0A5480078A5490978884217
:1012600003D00120694608712FE0A249A24802F08C
:101270001FFA002805D1A149A14802F019FA002857
:1012800003D00120694608711FE0002004002000FF
:1012900094490978C0B2884217D29A482100C9B24D
:1012A0000822514340183B21405C96492200D2B2AB
:1012B00008235A4389183E22895C884203D00120C2
:1012C0006946087101E0641CE1E76846007900287E
:1012D0001DD18D480078002819D08C48007800284E
:1012E00015D18B480078002811D1320000237E48A8
:1012F00003C8121A8B41002B09D301D8102A06D338
:1013000000277948C0C0083801206946087168463E
:101310000079002800D1DFE010227649764802F0FB
:101320000BFA10227549764802F006FA6F480078E9
:101330006F4908700020040020006A490978C0B293
:10134000884211D26F482100C9B208225143401887
:101350003B21405C6B492200D2B208235A438918D2
:101360003E228854641CE7E702F01AFA0500002DBB
:1013700000D1B1E02800583002F0BCFB02206870B8
:101380005A480078E8705748007828710020040017
:10139000200054490978C0B2884263D259482100DC
:1013A000C9B20822514340183D21405C2100C9B216
:1013B000082251436918C87252482100C9B2082254
:1013C000514340183C21405C2100C9B208225143DE
:1013D000691888724B482100C9B20822514340184D
:1013E0003821405C2100C9B2082251436918887134
:1013F00044482100C9B20822514340183921405CB9
:101400002100C9B2082251436918C8713D48210022
:10141000C9B20822514340183A21405C2100C9B2A8
:10142000082251436918087236482100C9B20822BF
:10143000514340183B21405C2100C9B2082251436E
:10144000691848722F482100C9B208225143401838
:101450003721405C2100C9B2082251436918487104
:10146000641C95E702F0D4F9A8702A48407D552104
:10147000685428488068A8642648007B4C2168543A
:10148000244800682864234800794421685403A84C
:10149000009082231B02602229001F4802F0AEFD4B
:1014A00002F05CF902900298002815D01B480068F1
:1014B000401C1A4908600320029908700120029913
:1014C000488000200299486003A800900023082269
:1014D0000299134803F074F807B0F0BD912A002078
:1014E000A1050020AE430020E0440020AA430020D4
:1014F000AB43002088430020404B0020984300204D
:10150000504B002078430020A8430020AD44002029
:10151000AC440020E04A0020F84A0020F04B0020B4
:10152000E844002000B5FEE730B4036801248C4095
:10153000E5431D401400E407E40F8C402C43046095
:1015400030BC7047C022D2048218116070478022DC
:10155000D20482181160704770B504000D001600A7
:1015600029002000FFF7F3FF31002000FFF7EAFF1A
:1015700070BD38B504000D002000C0B2002801D1B4
:1015800055483CE02000C0B2012801D1534836E064
:101590002000C0B2022801D1514830E02000C0B282
:1015A000032801D14F482AE02000C0B2042801D10D
:1015B0004D4824E02000C0B2052801D13F201EE0A4
:1015C0002000C0B2062801D1002018E02000C0B2DF
:1015D000072801D1002012E02000C0B2082801D164
:1015E00000200CE02000C0B2092801D1002006E054
:1015F0002000C0B20A2801D1002000E000202841CC
:10160000C00704D4DD2189003848FFF78BFF012192
:10161000A94037482200D2B230235A4380180C30F8
:10162000FFF795FF31BD38B504000D002000C0B2B2
:10163000002801D128483CE02000C0B2012801D197
:10164000264836E02000C0B2022801D1244830E00C
:101650002000C0B2032801D122482AE02000C0B2F5
:10166000042801D1204824E02000C0B2052801D17F
:101670003F201EE02000C0B2062801D1002018E063
:101680002000C0B2072801D1002012E02000C0B223
:10169000082801D100200CE02000C0B2092801D1A7
:1016A000002006E02000C0B20A2801D1002000E09E
:1016B00000202841C00703D467490C48FFF732FFD8
:1016C0000121A9400A482200D2B230235A4380188F
:1016D0000C30FFF737FF31BD7FF70000F8790000CD
:1016E000FFFF0000FF010000F0FF0000B00A010052
:1016F00000800840F8B505000F00140000262800FF
:10170000C0B2002801D156483CE02800C0B20128F0
:1017100001D1544836E02800C0B2022801D1A948BE
:1017200030E02800C0B2032801D1A7482AE02800F1
:10173000C0B2042801D1A54824E02800C0B2052881
:1017400001D13F201EE02800C0B2062801D10020B0
:1017500018E02800C0B2072801D1002012E02800BC
:10176000C0B2082801D100200CE02800C0B209282E
:1017700001D1002006E02800C0B20A2801D10020D3
:1017800000E000203841C00703D4C4213348FFF7EC
:10179000C9FEA0088000B9088900884203D0C6218C
:1017A0002E48FFF7BFFE082C0ED22A00D2B220002E
:1017B0000421484382400F212000042358438140E4
:1017C0008348FFF7C9FE10E02000083806002A0011
:1017D000D2B230000421484382400F21300004235C
:1017E000584381407B48FFF7B7FE082C0ED2BA075A
:1017F000920F20000421484382400321200004234B
:10180000584381407448FFF7A7FE0DE0BA07920FD6
:101810003000042148438240032130000423584310
:1018200081406E48FFF798FE6846027821006C48B8
:10183000FFF77AFE6846027E21006A48FFF774FED1
:101840000120A040684908606846027F210067487F
:10185000FFF76AFEF1BD0000A1030000E40A0100E9
:101860007FF70000F8790000F8B504000D001600BD
:101870001F002000C0B2002801D15D483CE02000DC
:10188000C0B2012801D15B4836E02000C0B2022876
:1018900001D14C4830E02000C0B2032801D14A48B1
:1018A0002AE02000C0B2042801D1484824E02000EA
:1018B000C0B2052801D13F201EE02000C0B206289A
:1018C00001D1002018E02000C0B2072801D100207B
:1018D00012E02000C0B2082801D100200CE0200056
:1018E000C0B2092801D1002006E02000C0B20A28B9
:1018F00001D1002000E000202841C00704D4FF21CE
:1019000010313D48FFF70EFE3000C0B200280CD069
:10191000002F05D029002000C0B2FFF784FE04E0AC
:1019200029002000C0B2FFF724FE082D1BD2334847
:101930002100C9B230225143401840680F212A00CB
:1019400004235A43914088433100C9B22A0004233A
:101950005A439140014329482200D2B230235A43CE
:10196000801841601CE025482100C9B23022514353
:10197000401880680F212A00083A04235A439140F6
:1019800088433100C9B22B00083B042253439940DD
:1019900001431A482200D2B230235A438018816092
:1019A0003000C0B200280CD1002F05D02900200043
:1019B000C0B2FFF738FE04E029002000C0B2FFF7F4
:1019C000D8FDF1BDFFFF0000FF010000F0FF0000A7
:1019D0000084084004840840088408400C840840BF
:1019E0001084084014840840248408402884084057
:1019F0007FF70000F8790000E40A01000080084049
:101A00000268CA401000C007C00F704738B5040014
:101A10000D002000C0B2002801D128483CE0200081
:101A2000C0B2012801D1264836E02000C0B2022809
:101A300001D1244830E02000C0B2032801D122485F
:101A40002AE02000C0B2042801D1204824E0200070
:101A5000C0B2052801D13F201EE02000C0B20628F8
:101A600001D1002018E02000C0B2072801D10020D9
:101A700012E02000C0B2082801D100200CE02000B4
:101A8000C0B2092801D1002006E02000C0B20A2817
:101A900001D1002000E000202841C00703D48F4975
:101AA0008F48FFF73FFD29008E482200D2B2302335
:101AB0005A4380181C30FFF7A3FF32BD7FF70000A8
:101AC000F8790000FFFF0000FF010000F0FF0000B8
:101AD000F8B586B005000C0068468349182201F06D
:101AE000A3F8002D01D18148F6E0002C01D1A148D6
:101AF000F2E0582600273A003100280001F054F89F
:101B000020687B49884207D17A48E8647A4868624D
:101B1000C0200003A86225E020689749884207D1C9
:101B20009648E86496486862D0200003A86219E0ED
:101B300020689449884207D19348E86493486862D2
:101B4000E0200003A8620DE020689149884207D197
:101B50009048E86490486862F0200003A86201E0C1
:101B60008448B9E0280021001C2201F05DF8607D66
:101B7000012802D1012069468873A07D002803D185
:101B800000206946088219E0A07D012804D1802048
:101B900080006946088211E0A07D022804D18020DF
:101BA00040006946088209E0A07D032804D1C020D6
:101BB00080006946088201E06E488DE0207D0128A2
:101BC00006D1002069464873FA208000029001E0A7
:101BD000A06802900121714803F026FA01217048A3
:101BE00003F022FA0121E86C03F01EFA694620682E
:101BF00004F0C8F8207D002809D1E07D002806D136
:101C00002068006880214902014320680160E07D6E
:101C1000002814D10F20216848672068806F61492F
:101C2000014020790002084361790143A079000650
:101C30000843E179090401432068816710E00B2023
:101C4000216848672068806F574901402079000269
:101C5000084361790143A079000608432168886739
:101C60000121280000F0ECF80700002801D038001E
:101C700032E004F049F906004C480078002808D109
:101C800001204A490870300004F042F901F05FF980
:101C900002E0300004F03CF9207D012807D1280043
:101CA000543001F02CF9002801D0414814E004F030
:101CB000B8F9002128001C3004F034F9002801D0C4
:101CC0003C4809E000212800203004F02BF90028CE
:101CD00001D0384800E0002007B0F0BD57030000F5
:101CE000840C01000080084040100100012000F039
:101CF000000001400002040001000C0038B504009F
:101D0000002C01D12C4834E004F0FEF805004820F6
:101D1000205C002804D1280004F0FAF8274828E0C5
:101D2000207D012802D1606D01F0B6FA206A04F02E
:101D3000E7F9E06904F0E4F921003831206A04F0A1
:101D40004BFA1F4860640020482160541C486064BE
:101D5000012050216054E06A002806D0606BA16B1E
:101D6000421A17492000E36A9847280004F0D0F887
:101D7000002032BD022000F00004014000120400E7
:101D800001000D00000801400022040001000E00C7
:101D9000000C01400032040001000F00404105002A
:101DA00000250800F8F8F8F8F8F8FFF8184C0020BB
:101DB000042000F0092000F0012000F0062000F0CF
:101DC000072000F0F2B582B0040017001E00099D44
:101DD000207D002801D118482AE032000299200015
:101DE00000F08AFE0190002801D0019820E0002F29
:101DF00001D112481CE0002D06D000940D4B2A00A2
:101E00000021606D01F022F9207E012807D1200019
:101E100000F0A4FE0190002801D0019808E0089885
:101E2000009033003A000299200000F01DFE0020CF
:101E3000FEBD0000FB290000082000F0022000F099
:101E4000F3B583B00398009003980068A9498842CD
:101E500000D042E100980079002801D104271FE05A
:101E600000980079012801D1042719E00098007931
:101E7000022801D1022713E000980079032801D13C
:101E800004270DE000980079042801D1012707E01C
:101E900000980079052801D1022701E00027FF43BF
:101EA00000984079002801D104261FE0009840796D
:101EB000012801D1042619E000984079022801D1B7
:101EC000022613E000984079032801D104260DE092
:101ED00000984079042801D1012607E00098407954
:101EE000052801D1022601E00026F64300988079FA
:101EF000002801D104241FE000988079012801D135
:101F0000042419E000988079022801D1022413E00A
:101F100000988079032801D102240DE0009880798F
:101F2000042801D1012407E000988079052801D117
:101F3000002401E00024E4430098C079002801D186
:101F400004201FE00098C079012801D1042019E085
:101F50000098C079022801D1022013E00098C079CE
:101F6000032801D102200DE00098C079042801D196
:101F7000012007E00098C079052801D1002001E088
:101F80000020C0430399C86300980079002802D15B
:101F90000A20029025E000980079012802D107204C
:101FA00002901EE000980079022802D10B200290D6
:101FB00017E000980079032802D10D20029010E06C
:101FC00000980079042802D10720029009E00098C7
:101FD0000079052802D10020029002E00020C043D1
:101FE000029000984079002802D10B20019025E052
:101FF00000984079012802D1062001901EE0009847
:102000004079022802D10A20019017E00098407917
:10201000032802D10C20019010E000984079042898
:1020200002D10820019009E000984079052802D1EA
:102030000120019002E00020C043019000988079C7
:10204000002801D10C251FE000988079012801D1DA
:10205000052519E000988079022801D1092513E0AF
:1020600000988079032801D10F250DE00098807930
:10207000042801D10D2507E000988079052801D1B9
:102080000C2501E00025ED430098C079002801D11E
:102090000D201FE00098C079012801D1042019E02B
:1020A0000098C079022801D1082013E00098C07977
:1020B000032801D10E200DE00098C079042801D139
:1020C0000E2007E00098C079052801D10D2001E01D
:1020D0000020C04303990864CBE3039800680649D5
:1020E000884200D07FE100980079002806D10227BD
:1020F0002BE000BF0000014000040140009800797F
:10210000012801D1032720E000980079022801D19D
:1021100003271AE000980079032802D10027FF4323
:1021200013E000980079042801D102270DE00098FF
:102130000079052801D1052707E0009800790628D5
:1021400001D1002701E00027FF43009840790028D3
:1021500001D1022626E000984079012801D103260A
:1021600020E000984079022801D103261AE0009867
:102170004079032802D10026F64313E00098407905
:10218000042801D102260DE000984079052801D1EC
:10219000002607E000984079062801D1002601E0DA
:1021A0000026F64300988079002801D1012425E01B
:1021B00000988079012801D103241FE000988079DC
:1021C000022801D1052419E000988079032801D163
:1021D000022413E000988079042801D102240DE044
:1021E00000988079052801D1012407E000988079C2
:1021F000062801D1042401E00024E4430098C079BA
:10220000002801D1012026E00098C079012801D1E1
:10221000032020E00098C079022801D105201AE0AF
:102220000098C079032801D1022014E00098C079F9
:10223000042801D102200EE00098C079052801D1C0
:10224000042008E00098C079062802D10020C0438D
:1022500001E00020C0430399C8630098007900287A
:1022600002D1002002902DE000980079012802D1CF
:102270000020029026E000980079022802D1072071
:1022800002901FE000980079032803D10020C0438A
:10229000029017E000980079042802D101200290F2
:1022A00010E000980079052802D10220029009E090
:1022B00000980079062802D10E20029002E000204A
:1022C000C043029000984079002802D1012001907B
:1022D0002DE000984079012802D10120019026E0EC
:1022E00000984079022802D1062001901FE0009852
:1022F0004079032803D10020C043019017E00098E3
:102300004079042802D10220019010E00098407921
:10231000052802D10020019009E0009840790628A4
:1023200002D10220019002E00020C04301900098F9
:102330008079002801D1072525E0009880790128BF
:1023400001D102251FE000988079022801D10025E3
:1023500019E000988079032801D10F2513E0009837
:102360008079042801D103250DE0009880790528A3
:1023700001D10B2507E000988079062801D10525B9
:1023800001E00025ED430098C079002801D1082024
:1023900026E00098C079012801D1032020E00098B0
:1023A000C079022801D101201AE00098C0790328E1
:1023B00001D10E2014E00098C079042801D100203A
:1023C0000EE00098C079052801D1042008E00098AB
:1023D000C079062802D10020C04301E00020C0439C
:1023E0000399086445E2039800680549884200D0D3
:1023F0004FE100980079002804D1022724E000BFB3
:102400000008014000980079012801D101271BE054
:1024100000980079022802D10027FF4314E00098B9
:102420000079032801D100270EE0009800790428E4
:1024300002D10027FF4307E000980079052801D169
:10244000052701E00027FF4300984079002801D1CB
:10245000022620E000984079012801D101261AE0E7
:1024600000984079022801D1002614E000984079B4
:10247000032801D100260EE000984079042802D1FB
:102480000026F64307E000984079052801D105268B
:1024900001E00026F64300988079002801D102244B
:1024A00020E000988079012801D101241AE00098E9
:1024B0008079022801D1002414E000988079032853
:1024C00001D100240EE000988079042802D1002474
:1024D000E44307E000988079052801D1052401E054
:1024E0000024E4430098C079002801D1022020E0B4
:1024F0000098C079012801D101201AE00098C07924
:10250000022801D1002014E00098C079032801D1ED
:1025100001200EE00098C079042802D10020C043B9
:1025200007E00098C079052801D1052001E00020CE
:10253000C0430399C86300980079002802D10220A3
:10254000029027E000980079012802D10320029030
:1025500020E000980079022803D10020C0430290B7
:1025600018E000980079032802D10D20029011E0B4
:1025700000980079042803D10020C043029009E0AC
:1025800000980079052802D10020029002E0002086
:10259000C043029000984079002802D103200190A6
:1025A00026E000984079012802D1042001901FE024
:1025B00000984079022802D10820019018E0009884
:1025C0004079032802D10E20019011E00098407953
:1025D000042803D10020C043019009E0009840790D
:1025E000052802D10120019002E00020C0430190A3
:1025F00000988079002801D1042520E00098807996
:10260000012801D105251AE000988079022801D11E
:10261000092514E000988079032801D10F250EE0E8
:1026200000988079042802D10025ED4307E0009846
:102630008079052801D1022501E00025ED430098AD
:10264000C079002801D1052020E00098C079012838
:1026500001D106201AE00098C079022801D10A2091
:1026600014E00098C079032801D10B200EE00098F7
:10267000C079042802D10020C04307E00098C07947
:10268000052801D1052001E00020C043039908641A
:10269000EFE0039800680549884200D0E7E0009821
:1026A0000079002804D1002717E000BF000C01408A
:1026B00000980079012801D104270EE000980079E4
:1026C000022801D1012708E000980079032802D1EF
:1026D0000027FF4301E00027FF43009840790028CE
:1026E00001D1002614E000984079012801D1042688
:1026F0000EE000984079022801D1012608E00098F8
:102700004079032802D10026F64301E00026F64373
:1027100000988079002801D1002414E00098807985
:10272000012801D103240EE000988079022801D10C
:10273000032408E000988079032802D10024E443B0
:1027400001E00024E4430098C079002801D1002072
:1027500013E00098C079012801D104200DE0009811
:10276000C079022801D1022007E00098C07903282F
:1027700001D1022001E00020C0430399C863009802
:102780000079002802D10020029018E0009800791A
:10279000012802D10620029011E000980079022859
:1027A00002D1032002900AE000980079032803D1A7
:1027B0000020C043029002E00020C0430290009835
:1027C0004079002802D10120019018E0009840795A
:1027D000012802D10720019011E0009840790228D9
:1027E00002D1072001900AE000984079032803D124
:1027F0000020C043019002E00020C04301900098F7
:102800008079002801D1022514E000988079012800
:1028100001D107250EE000988079022801D1042516
:1028200008E000988079032802D10025ED4301E0FB
:102830000025ED430098C079002801D1032013E062
:102840000098C079012801D104200DE00098C079DA
:10285000022801D10E2007E00098C079032801D199
:10286000002001E00020C0430399086401E0A14872
:10287000A0E06846007C002869D00398007D00280D
:1028800032D10023042202993800C0B2FEF7ECFFD7
:102890000023022201993000C0B2FEF7E5FF039841
:1028A000807D002803D00398807D012807D1002374
:1028B000042229002000C0B2FEF7D6FF06E0012363
:1028C000042229002000C0B2FEF7CEFF0398C07D8D
:1028D00000286ED1012304220398016C0398C06B79
:1028E000C0B2FEF7C1FF64E0002302220299380063
:1028F000C0B2FEF7B9FF0023042201993000C0B234
:10290000FEF7B2FF0398807D002803D00398807DF6
:10291000012807D10023022229002000C0B2FEF7BF
:10292000A3FF06E00123022229002000C0B2FEF727
:102930009BFF0398C07D00283BD10123022203980E
:10294000016C0398C06BC0B2FEF78EFF31E000232C
:10295000022202993800C0B2FEF786FF002302224D
:1029600001993000C0B2FEF77FFF0398807D0028F8
:1029700003D00398807D012807D10023022229007B
:102980002000C0B2FEF770FF06E0012302222900FA
:102990002000C0B2FEF768FF0398C07D002808D170
:1029A000002300220398016C0398C06BC0B2FEF7AD
:1029B0005BFF002005B0F0BDF1B50F00160003F07D
:1029C000A3FA050034000020606400204821605410
:1029D0000020A063207D012802D1606D00F05CFC26
:1029E000E06A002804D0626B00212000E36A984767
:1029F000280003F08DFA0120F2BD7CB506000D0021
:102A00002C004820205C01282DD100A9491C206AF7
:102A100003F090FB6846407800280BD0206A03F052
:102A20006FFBE06903F06CFB21003831206A03F092
:102A3000D3FB09E06946E06903F0A4FB684600782F
:102A4000002810D1606BA0633E48606400204821DC
:102A50006054E06A002806D0606BA16B421A3949C5
:102A60002000E36A984773BDF6B587B004001E00E6
:102A70000E9F0020502160546663C0200001216831
:102A8000C860E762E068092801D3012500E000255D
:102A9000E068092806D320682430069020683C307E
:102AA000059005E020681C300690206834300590C1
:102AB0000494254803902800C0B20290019601209A
:102AC0000090069B089AA16A206A03F0F3FA00209E
:102AD0000490002003902800C0B2029001960120CB
:102AE0000090079B059A616AE06903F0C6FA09B095
:102AF000F0BD0000022000F0F8B504000F00150042
:102B0000002C01D111481BE0002F04D0002D02D071
:102B10000F48854201DB0F4812E003F0F5F906008B
:102B20004820205C002804D0300003F0F1F90A4866
:102B300006E0012048216054300003F0E9F900204C
:102B4000F2BD0000052000F0B9290000012000F0CE
:102B500001080000022000F0032000F010B504007E
:102B6000216CE06BC0B2FEF751FF002803D1482072
:102B7000205C0028F4D14820205C002801D1606C42
:102B800000E0002010BD0368002A03D15B1E036033
:102B9000080070471978002902D10020C04370470F
:102BA000591C0160187870471206130A1A43130C57
:102BB0001A4300BF094205D0830705D00270401CAC
:102BC000491EF9D170470000130030B414001500FD
:102BD000103902D310393CC0FCD2490700D30CC0D5
:102BE00000D504C0890002D30280801C002900D5D2
:102BF000027030BC704700000022DBE70022E3E7F0
:102C0000124207D08B0706D00B78491C0370401C7A
:102C1000521EF7D87047830706D00B78491C037003
:102C2000401C521EF9D1704770B4103A03D378C9D2
:102C3000103A78C0FBD2530701D318C918C001D588
:102C400008C908C0D20704D30B880380891C801CE4
:102C5000002A01D50B78037070BC70470121C206B1
:102C6000D20E9140354A116070470121C206D20E42
:102C70009140334A116070473249086070473248CA
:102C80000068324909680840704700B5010000201B
:102C9000202804D2CA0702D4401C4908F8E700BD26
:102CA00080B50B20FFF7E1FF0B20FFF7D7FF0320D4
:102CB000FFF7DBFF0320FFF7D1FF01BD70B5050073
:102CC0000C0003F021F9060021482900C9B20422B2
:102CD00051434450300003F01BF970BD70B506003D
:102CE000002E12D03000FFF7D0FF04000120A040DA
:102CF00086431748042161434058050028000028F6
:102D0000EED02000C0B2A847EAE770BD10B5FFF7CB
:102D1000B6FF104C04402000FFF7AEFF2000FFF785
:102D2000DDFF10BD10B5FFF7AAFF0B4C04402000DB
:102D3000FFF7A2FF2000FFF7D1FF10BD00E100E088
:102D400080E200E024840840288408401C84084075
:102D5000E449002055550000AAAA0000F4460028C6
:102D600004D4494200F013F8404260474042002931
:102D700005D45FD000F00BF8404249426047494219
:102D800000F005F84942604703460B43E6D40022B1
:102D9000030A8B420BD203098B4219D243088B42A0
:102DA0002ED2411A00D20146524110467047FF22EE
:102DB00009023FD012068B4205D3121209028B4240
:102DC00001D31212090203098B4219D300E0090A48
:102DD000C3098B4201D3CB01C01A524183098B42F4
:102DE00001D38B01C01A524143098B4201D34B01DD
:102DF000C01A524103098B4201D30B01C01A524140
:102E0000C3088B4201D3CB00C01A524183088B42C6
:102E100001D38B00C01A524143088B4201D34B00AF
:102E2000C01A5241884200D3401A5241CFD20146C3
:102E30001046704708B503F02DFB08BD00B5010032
:102E4000002080221206114202D1401C5208FAE7EB
:102E500000BD0121C206D20E9140654A1160704743
:102E60000121C206D20E9140624A1160704738B506
:102E70000400002C02D05C48844203D35B495E48C6
:102E8000FEF750FB1F252000FFF7D8FF281A32BDA0
:102E900010B50400032C04DBA12149005748FEF7BC
:102EA00041FB574810214C430019406810BD38B50C
:102EB00004000D00032C04DBA92149004F48FEF754
:102EC00031FB4F48102161434018456031BD4D48EA
:102ED000006870474C49086070474C490968814355
:102EE0004A4A11607047494909680143474A1160DD
:102EF0007047464800684649096808407047F8B579
:102F0000040000250020009002F0FEFF0700042DC1
:102F100008DA4048282169434018807F002801D002
:102F20006D1CF4E7042D01D13B4E0BE0002C08D0C2
:102F30000120384928226A438918887725600026AD
:102F400000E0364E380002F0E3FF3000F2BD70B50D
:102F500033480078012801D1002044E001203049A5
:102F6000087001212F4802F05FF803212E4802F07B
:102F700047FA0820FFF77BFF2C49087101212C48F4
:102F800002F052F8294803F0AFFA2A49012003F071
:102F900083FA2948FFF7A1FF2748FFF79BFF00208E
:102FA000184908601320FFF75BFF1320FFF751FF5C
:102FB0000120FFF798FFA0240025164E2A002100CB
:102FC0003000FFF7F1FD00201C49087000201C496B
:102FD000087000201B49086000201B490860002081
:102FE000AC490860002070BD01800000AB06000005
:102FF00000E100E080E200E0E80B01001C0C0100B1
:10300000402006400820064020200640242006409C
:1030100018200640D8420020011000F0041000F0F3
:10302000144C00200005080005002000F4040020D6
:103030008009120000050020FF070000124C00204C
:10304000134C0020DC4B0020E04B0020FEB586B086
:1030500004000025042C01D3A14818E102F054FF1C
:1030600002909D48282161434018807F002804D1A8
:10307000029802F04DFF994809E1079800280BD10A
:103080000898002803D00E992000089A90470298CB
:1030900002F03EFF0020FAE0FFF719FF0600089853
:1030A0008D4928226243891888610798002180226F
:1030B0001202002303F05CFA02000B00FA20000168
:1030C000002180185941FA225201002303F069FAC5
:1030D000814A28236343D218083203C2083A68465B
:1030E000007E012820D10798FA2189004843002159
:1030F000009001917848282161434018083003C8A6
:10310000F422002303F034FA009A019B121A8B4137
:10311000714828216143401802617A206E492822B3
:103120006243891848610CE06B48282161434018CC
:10313000083003C8684A28236343D218083203C200
:10314000083A6548282161434018083003C8002226
:10315000401C5141604A28236343D21803C2083AF5
:1031600001205D4928226243891808776846007E5D
:103170005949282262438918C8770E98564928224F
:1031800062438918086276480078012804D10298C1
:1031900002F0BEFE00207AE0724800680021C943B8
:1031A000884204D06F480068401C6E4908606E4831
:1031B0000078002827D16D4806600420FFF78AFEBA
:1031C000454828216143401803C86422D2430023A4
:1031D000994209D801D3904206D23F482821614341
:1031E000401803C8039002E06420C0430390039892
:1031F00031180120FFF75BFE0420FFF774FE012069
:103200005949087036E057480068012832D100203B
:10321000314928226243891808770420FFF75DFEB0
:1032200052480068371A380000F0F2F800F0CBF985
:10323000002D05D1012028492822624389180877EA
:103240006D1C300000F0D9F9FFF741FE0600474839
:103250000068301A05900120FFF71AFE43490968FB
:10326000401A049040480078002803D0049805993B
:103270008842D2D33B480068002804D0394800680F
:10328000401E38490860029802F042FE002009B052
:10329000F0BD0000E44B002038B50400042C01D33D
:1032A0000F4818E002F030FE05005648282161431F
:1032B0004018807F002804D1280002F029FE07482A
:1032C00009E000204F492822624389180877280026
:1032D00002F01EFE002032BDD8420020031000F094
:1032E000021000F010B500F012F847490C680021F8
:1032F0000822002303F03CF98022D2010023121897
:103300004B41D20B58040243DB0BA01810BD38B55B
:103310003E4800680400FFF7DAFD05003B480068FE
:103320008442F5D1280032BD38B504000025FFF7EE
:10333000EEFF00210822002303F01AF98022D201B7
:10334000002312184B41D20B58040243DB0B200020
:103350002900801A99412C490860002032BD0000E4
:10336000124C0020DC4B0020134C0020D84B0020D6
:10337000FEB502F0C9FD0500FFF7BBFD06003000F9
:1033800005218843FFF7A6FD70072CD50120BE4913
:103390000870FFF79CFD04000420FFF79EFDBE4867
:1033A0000068271A380000F033F800F00CF920000C
:1033B00000F023F9FFF78BFD0400B7480068201ADE
:1033C00001900120FFF764FDB3490968401A00909D
:1033D000B2480078002803D0009801998842DBD3D6
:1033E0000020A9490870F00707D50120FFF772FDFA
:1033F00006480068401C05490860280002F088FD66
:10340000F7BD0000D8420020E44B0020E04B002034
:10341000FEB505000024042C00DBD3E000209B490E
:103420002822624389184877984828216143401828
:10343000007F012800D0C3E02A0000239348282100
:103440006143401803C88B4212D801D382420FD285
:103450008E4828216143401803C82A000023801A9F
:1034600099418A4A28236343D21803C2083AA7E045
:103470008648282161434018C07F002806D10020DB
:10348000824928226243891808778CE02E000027A1
:103490007E4828216143401803C8361A8F417B4873
:1034A000282161434018083003C800900191300082
:1034B0003900764B282262439A1808320CCA03F06E
:1034C00070F800980199801A9941704A2823634343
:1034D000D21803C2083A6D48282161434018006998
:1034E000012830DB69482821614340184069674959
:1034F00028226243891809694018644928226243D6
:103500008918486161482821614340184069F428BE
:1035100049D35E4828216143401803C80022401C5B
:1035200051415A4A28236343D21803C2083A5748E4
:103530002821614340184069F438544928226243E5
:10354000891848612FE0514828216143401840699B
:103550004E492822624389180969401A4B4928229A
:1035600062438918486149482821614340184069ED
:10357000F42818D3454828216143401803C8002285
:10358000401E9141414A28236343D21803C2083A9E
:103590003E482821614340184069F4383B492822BD
:1035A000624389184861394828216143401880697D
:1035B000002805D001203549282262438918487720
:1035C000641C28E7F7BD10B50024042C14DA2F483A
:1035D000282161434018407F00280BD02B48282128
:1035E00061434018016A2000284A28236343D21807
:1035F00092699047641CE8E710BDF8B5050024A661
:10360000C0CE0024042C19DA204828216143401838
:10361000007F012810D11D4828216143401803C8AC
:10362000B94209D801D3B04206D2184828216143D3
:10363000401803C806000F00641CE3E70020174988
:10364000087013A003C88F4201D186421AD06420AB
:10365000C04300218F4203D801D3864200D202E04A
:103660006426F64300270C4805600420FFF732FC6F
:10367000A9190120FFF71BFC01200849087004204C
:10368000FFF731FCF1BD0000124C0020D8420020B1
:10369000FFFFFFFFFFFFFFFFD84B0020134C002070
:1036A00002780B78002A2FD0401C491C9A422BD15B
:1036B0008207F5D170B41F4CE5018A0726D104C8F2
:1036C00008C9161B96432E4208D19A42F7D070BC07
:1036D00012BA1BBA9A4280414041704770BC12BA7C
:1036E0001BBA100E0BD0FF21100C084208D0100A94
:1036F000084206D0D01A01D08041404170471B0AD1
:103700001B0A1B0AC01A7047D01A70470B784A78F8
:10371000120213438A7812041343CA781206134321
:10372000091D04C8161B96432E42D7D19A42EDD0EC
:10373000CDE700000101010110B504000B001100EC
:1037400003E002705B1C401C491E002904D01A785B
:10375000002AF6D1FFF750FA200010BD80B588B0DE
:1037600004A8019003A8009002AB8022120200215D
:10377000244800F01DFB09B000BD18B585B0040059
:1037800001A8009082231B02082221001D4800F09E
:1037900035FC68460079002800D0FEE706B010BD71
:1037A00080B588B004A8019003A8009002AB8022E5
:1037B00012020A21144800F0FBFA09B000BD30B52E
:1037C00085B004000D002800C0B2012809D101A86D
:1037D000009082231B02602221000B4800F00EFCA7
:1037E00008E001A8009082231B0260222100074804
:1037F00000F004FC68460079002800D0FEE705B020
:1038000030BD0000284B0020104B0020F84A00205B
:1038100000207047F8B584B007000E0015001C00AA
:103820000020C0430390B14A3100380002F0EEFEA0
:103830000390AF480290BC480190BC480090BC4B3C
:10384000BC4A2100280002F0E1FE05B0F0BDFFB542
:10385000FFB0C2B00EA82021FFF7D0F90020C0436E
:103860000590012700240BA80C21FFF7C7F908A831
:103870000C21FFF7C3F90020079000206946088358
:10388000CA9D16A8AA218900FFF7B8F9AA4AC299C9
:10389000C19802F0BBFE05905820285C0490592086
:1038A000285C03905A20285C02905C20285C0190E0
:1038B0005D20285C00905E202B5AA04A1E210EA895
:1038C00002F0A4FE5B2016A9087000262879864223
:1038D0005BD20024082070432818427998490BA82D
:1038E00002F0BAFE0820704328188079C0B200099F
:1038F000082171436918C872082070432818C27AD9
:10390000C24908A802F0A8FE082070432818C07910
:10391000044320022043082171436918097A0843AF
:1039200069460883069800B202F0C6FE0090019135
:10393000082070432818807A02F0AEFE02000B00C7
:103940000020B34903F08CFA02000B0000980199A3
:1039500003F09EFC03F0FDFC0790079803F02AFD9E
:1039600002900391082070432818407A00900820A4
:103970007043281883790BAAB84916A8C01902F019
:103980006BFE38180700761CA0E72879002800D0C5
:103990007F1E5D2016A9C855B14800780100491C5A
:1039A000AF4A1170AF490491AF490391E978029190
:1039B000C0B201900EA80090AC4BAD4AC499C39818
:1039C00002F024FE04005520285C012821D12B00A0
:1039D00044332A004C32290040312800483000F09E
:1039E00031F8286D03F0E6FC04900591286C03F093
:1039F000E1FC02900391A86C03F0DCFC00900191C3
:103A0000B04AC498011BC398001902F0FFFD2018AA
:103A1000040016ABAC4AC498011BC398001902F00D
:103A2000F5FD20187FB046B0F0BDF4B505000C00E0
:103A30001F000026F6438D4BA44A2100280002F007
:103A4000E5FDF2BDFCB583B004000D002068A0497F
:103A500003F0C9FC060028689D4903F0C4FC070078
:103A6000300003F015FD0290380003F011FD0190C5
:103A7000029803F03BFD0090029803F037FD01002F
:103A8000300003F076FD934903F0ADFC904903F05C
:103A9000C8FD009903F035FD2060019803F026FD74
:103AA0000090019803F022FD0100380003F061FD51
:103AB000884903F098FC864903F0B3FD009903F0B0
:103AC00020FD286003980078532804D1216882489B
:103AD00003F0A7FD206004980078572804D12968D6
:103AE0007D4803F09EFD286005B0F0BD940E0100F6
:103AF000A81401001CB5040000200090FFF7F2FBA1
:103B00000090684603F0E5FD0169491C6171C168D8
:103B100021714169714A8918E1808168A170416809
:103B200061700168217013BD9C140100940D0100A7
:103B30006C0D0100CC660000280F0100BC0D0100D7
:103B4000EC150100FFB5FFB0CEB0070002A804F0ED
:103B500019F800250024E4433220019001980090D8
:103B600005ABCE9A390002A803F0B7FE0600002E7E
:103B700048D40124B44245D205A81021614340181D
:103B8000806805A91022624389184968401A050017
:103B90002A00534905A810236343C0184068381809
:103BA00003F0F8FF00281BD1002D19D005A8102123
:103BB00061434018806905A9102262438918496948
:103BC000401A050005A810216143401840693818C3
:103BD00000902B00434AD099CF9802F017FD0FE0D8
:103BE0002A00414905A810236343C01840683818CB
:103BF00003F0D0FF002803D1002D01D000200600E3
:103C0000641CB7E730007FB052B0F0BDF41501007E
:103C10000000244010B40400002010BC7047FEB522
:103C200004000F000026002530A1200003F0C8FF8B
:103C30000100002910D0481C411C087822280BD014
:103C40002800C0B2192807DA0878294A2B00DBB20D
:103C5000D054491C6D1CF0E70020FEBD680901002E
:103C6000074C002098430020884300207843002020
:103C700078050100F0B585B007000E0015001C00A6
:103C80000020C04304903800C0B200280BD119486E
:103C90000290019418480090184B194A29003000EE
:103CA00002F0B4FC0CE0174803901748029001940E
:103CB00011480090114B154A2900300002F0A6FC73
:103CC00005B0F0BDC4DA000020110100B40E0100FF
:103CD0000000C84200007042000080BF6C07000076
:103CE000A4120100B4140100C01401003A00000045
:103CF000A84A0020300E010010100100CC4700201F
:103D0000680601001444002034110100F005010090
:103D1000F7B504001D000027002D01D103F06AFF54
:103D20001F480078002808D01F2028701D486860B0
:103D30007620A8601C48E860FEE7002C08D10A2025
:103D40002870184868607920A8601748E860FEE786
:103D500068460089002808D108202870114868604A
:103D60007C20A8601048E860FEE703F071FF0600C1
:103D70000E48206001A86846018920000C3003F03D
:103D8000AAFF201D04F003FB300003F065FF0020B4
:103D90002870044868609220A8600348E860F7BD76
:103DA000084C0020E80801002C150100515545552C
:103DB000F7B582B01F000A9D0B9C00200090002CDC
:103DC00001D103F017FF86480078002809D01F2092
:103DD000207084486060BF204000A0608248E0609E
:103DE000FEE782480078012809D0022020707D4833
:103DF0006060FF208230A0607B48E060FEE70298B0
:103E0000002809D10A20207076486060C220400056
:103E1000A0607548E060FEE7002F09D10A202070FD
:103E200070486060FF208830A0606F48E060FEE767
:103E30006846008A002805D06846008A8021090269
:103E4000884201D1012000E00020C0B2002809D141
:103E50000820207063486060FF208C30A0606248BA
:103E6000E060FEE7029800686149884209D00C20B2
:103E700020705C486060C7204000A0605A48E06045
:103E8000FEE7002D01D00020286003F0E1FE0600CF
:103E900023002A00390002980C3003F024FF01901F
:103EA0002078002804D1300003F0D6FE019894E079
:103EB0006846008A00040DD5300003F0CDFE1C20BA
:103EC000207048486060FF20A430A0604648E06051
:103ED000002082E04748007800280DD0300003F031
:103EE000BBFE2A2020703F486060D5204000A060C3
:103EF0003D48E060002070E0039A0521029804F03C
:103F0000F5F9300003F0A8FE04F072F803F0A0FE0B
:103F10000090394800683121405C002805D0022813
:103F20003FD01AD303282BD04EE033480068C66D2B
:103F3000314800686021405A3880002D03D02E4857
:103F40000068406C28600020207026486060FF20D8
:103F5000C430A0602448E0603BE0002600203880A8
:103F6000002D03D024480068406C28602020207079
:103F70001C486060FF20D030A0601B48E06028E053
:103F8000002600203880002D01D00020286021204C
:103F9000207014486060FF20DA30A0601248E060B2
:103FA00017E0002600203880002D03D0124800685A
:103FB000406C28602E2020700A486060FF20E630A8
:103FC000A0600948E06004E000260020388003F08B
:103FD00011FE009803F040FE300005B0F0BD000077
:103FE000084C0020E808010004160100094C0020DC
:103FF000515545550D4C0020D04B0020F7B586B0EB
:1040000007001D000E9C0026002C01D103F0F2FDDC
:1040100054480078012809D002202070524860607E
:10402000A4208000A0605248E060FEE7002F08D185
:104030000A2020704C4860604E48A0604C48E06008
:10404000FEE7280080B2002825D0280080B2102882
:1040500021D0280080B28021890088421BD028000E
:1040600080B284218900884215D0280080B2802146
:10407000090288420FD0280080B23F4988420AD006
:10408000280080B282210902884204D0280080B230
:104090003A49884201D1012000E00020C0B2002846
:1040A00008D108202070304860603548A060304852
:1040B000E060FEE738682D49884209D00C20207066
:1040C00029486060A8208000A0602948E060FEE7E1
:1040D00004F01AFB039003F0BBFD0290381D04901E
:1040E00004980068002816D1280080B2C00601D4C8
:1040F000002600E0102601940398009033009BB244
:104100006846028C079938000C3003F02FFE0298A5
:1041100003F0A2FD24E004980668002E0FD0706A18
:104120000590039800906846038C079A3100380088
:1041300004F094F9A80502D505980600EDE7029869
:1041400003F08AFD280080B2000401D403F050FF80
:1041500000202070044860600A48A0600448E060C5
:1041600009B0F0BD094C0020E80801005155455543
:104170000C16010093020000108000001082000065
:104180009D020000D5020000FEB584B00600149C1C
:1041900000200290002C01D103F02CFD844800780F
:1041A000002809D01F20207080486060FF200C305C
:1041B000A0608048E060FEE7002E09D10A20207050
:1041C0007A48606087204000A0607A48E060FEE79F
:1041D0000598002809D10A20207074486060FF20EB
:1041E0001230A0607348E060FEE70D98002809D106
:1041F0000A2020706D4860608A204000A0606D48F1
:10420000E060FEE70F986C490968884209D20820EF
:10421000207066486060FF201830A0606548E0604C
:10422000FEE70E980F99884209D3082020705F4856
:1042300060608D204000A0605E48E060FEE70CA852
:104240000078402809D30820207058486060FF207B
:104250001E30A0605748E060FEE70CA800783F28B9
:1042600009D1082020705148606092204000A06071
:104270005048E060FEE7300000F00AFC00202070AB
:104280004A48606096204000A0604A48E06013A859
:1042900000888007800F00280FD013A800888007AF
:1042A0000BD50D980500002007000F98874204D217
:1042B000002028602D1D7F1CF7E70D980E99042221
:1042C00051434018039013A8008801900F98009064
:1042D000039B0D9A0699059804F054FA00900098F3
:1042E0000D9988420AD22F20207030486060FF204C
:1042F0004830A0602F48E06003F07CFC04A80CA8C4
:104300000078332170540CA8007834217054009840
:1043100030600398B060119870651198002803D13F
:1043200026480068B06501E01198B0651298706089
:104330000D9830620F98F06313A8008840217052E6
:1043400000252800C0B2002808D100202900C9B2E9
:1043500004225143711808676D1CF2E710A8018808
:104360003000643003F0B7FC300004F0F5F903F0DE
:104370006FFC02903320305C04F0ADFA300004F0A2
:10438000FDF80F480088401C0D49088080480078DF
:10439000012803D0029803F05FFC04E0029803F0C8
:1043A0005BFC03F025FE07B0F0BD00009C07010098
:1043B000084C0020241301004C160100984B0020EB
:1043C000004C0020F7B582B01E000A9C0027002C8C
:1043D00001D103F00FFC6F480078002808D01F209F
:1043E00020706D4860606E48A0606F48E060FEE736
:1043F00067480078012808D0022020706648606075
:104400006848A0606848E060FEE70498002808D18A
:104410000A202070604860606448A0606248E060E4
:10442000FEE768468089002805D06846808980219B
:104430000902884201D1012000E00020C0B200281A
:1044400008D108202070544860605948A060564840
:10445000E060FEE7002E01D00020306003F0F8FBA2
:1044600000904E48006864300190230032000499A7
:10447000019803F038FC05002078002804D100984A
:1044800003F0EAFB280080E06846808900040DD52F
:104490001C20207040486060BC208000A060424822
:1044A000E060009803F0D8FB00206EE041480078FF
:1044B00000280DD0009803F0CFFB2A20207036484A
:1044C0006060BE208000A0603748E06000205CE0B3
:1044D000029A0221002003F009FF009803F0BCFBC0
:1044E00003F086FD03F0B4FB07002C48006831217F
:1044F000405C002804D001281BD003282BD03EE0CC
:1045000026480068C06D0500244800686021405AB4
:1045100004990880002E03D020480068406C306069
:10452000002020701C4860602348A0601E48E060A6
:1045300027E000200500002004990880002E01D00B
:104540000020306020202070134860601B48A0606D
:104550001548E06015E0002005000020049908805F
:10456000002E03D00D480068406C30602120207080
:10457000094860606048A0600B48E06001E003F01B
:1045800039FB380003F068FB280005B0F0BD0000DF
:10459000094C0020084C00209C070100D04B002053
:1045A000C7020000CA02000044150100CD0200004D
:1045B000D10200000D4C0020170300002103000071
:1045C000F6B583B006001D000A9C00200090002C68
:1045D00001D103F00FFB4A480078012808D00220DF
:1045E0002070464860604848A0604848E060FEE7A8
:1045F000280080B200280ED0280080B210280AD0EF
:10460000280080B280210902884204D0280080B2AC
:104610003F49884201D1012000E00020C0B20028BB
:1046200008D108202070354860603A48A0603748BB
:10463000E060FEE704F068F80290002020702F4848
:104640006060F2208000A0603048E06003F000FB72
:104650000700002E02D12B48006806003220305C93
:104660000028012809D9801E012816D9801E01289A
:1046700003D9801E012810D936E0019402980090D9
:104680002B009BB26846028A03993000643003F025
:104690006DFB380003F0E0FA2BE03020305C02289C
:1046A00012D1029800906846038A039A31000020D4
:1046B00003F0D4FE380003F0CFFA280080B20004E3
:1046C00011D403F095FC0EE00194029800902B00A9
:1046D0009BB26846028A03993000643003F046FBBF
:1046E000380003F0B9FA04E0380003F0B5FA03F03B
:1046F00081FA05B0F0BD00002D0300009C07010009
:10470000094C0020D04B0020B703000050150100D9
:1047100010800000BD030000F3B581B015001C003F
:104720000026002C01D103F065FA684800780028C3
:1047300008D01F202070684860606548A060674806
:10474000E060FEE763480078012808D0022020706E
:10475000614860606248A0606048E060FEE76846CB
:104760000089002805D06846008980210902884216
:1047700001D1012000E00020C0B2002809D10820AA
:10478000207055486060A620C000A0605348E060DB
:10479000FEE703F05DFA070052480068806C0028CD
:1047A0001CD050480068806C401E4E4909688864DF
:1047B0004C480068866C002D03D04A480068406C65
:1047C0002860380003F048FA0020207042486060FA
:1047D0004548A0604148E060300075E068460089C7
:1047E000000410D5380003F037FA002D01D0002066
:1047F00028601C202070384860603C48A060374822
:10480000E060002060E03A480078002810D0002DD9
:1048100001D000202860380003F01EFA2A20207002
:104820002D4860603348A0602C48E06000204BE0D9
:10483000019A0721002003F059FD380003F00CFA1B
:1048400003F0D6FB03F004FA060026480068312185
:10485000405C002804D0012811D003281ED02AE093
:10486000002D03D01F480068406C28600020207095
:10487000194860602048A0601848E0601DE0002DE5
:1048800003D018480068406C28602020207012482F
:1048900060601A48A0601148E0600EE0002D01D071
:1048A00000202860212020700B4860601448A06020
:1048B0000A48E06001E003F09DF90A480068876C4F
:1048C000300003F0C9F93800FEBD0000084C00209C
:1048D00029050000094C00209C0701003413010049
:1048E0002C050000D04B00204505000052050000BB
:1048F0000D4C00205E0500007D05000087050000CE
:1049000091050000F2B582B0050014000027002CCC
:1049100001D103F06FF951480078012808D0022036
:1049200020704F4860604F48A0605048E060FEE74C
:1049300068460089002805D0684600898021090260
:10494000884201D1012000E00020C0B2002809D136
:104950000820207042486060C320C000A060434827
:10496000E060FEE703F0D0FE019003F071F906006D
:10497000002D02D13C4800680500019868640020C1
:104980002070374860603A48A0603848E0600027EF
:104990003220285C0028012809D9801E012821D94D
:1049A000801E012803D9801E01281BD94EE0A86C67
:1049B0000021C94388420CD1300003F04DF91D207D
:1049C0002070274860602B48A0602848E0600020E5
:1049D00042E0A86C401CA864A86C0700300003F0FB
:1049E0003BF938E03020285C072813D1019800906B
:1049F000002300222900002003F030FDA86C0700EE
:104A0000300003F029F96846008900041DD403F042
:104A1000EFFA1AE0A86C0021C94388420DD130009A
:104A200003F01AF91D2020700D486060D020C000EE
:104A3000A0600E48E06000200EE0A86C401CA86456
:104A4000A86C0700300003F007F904E0300003F021
:104A500003F903F0CFF83800FEBD0000094C002038
:104A60009C07010014060000D04B002044130100F5
:104A70002A060000490600000021824A1180002118
:104A800001707F494160804981608049C160704701
:104A900010B50400002020600020A06000206060AD
:104AA0000020E06000202061002060610020A06103
:104AB0000020E06100202062002060640020E065AA
:104AC00000206021605200212000643003F003F9CF
:104AD0000020606700207C2160520020A067002039
:104AE0008021605000208421605000200100C9B264
:104AF000002908D100210200D2B204235A43A2188F
:104B00001167401CF2E70021A1640021E16300214C
:104B10008822A15400219022A15000218C22A15072
:104B200000214022A1520021E164002121650021E1
:104B300061650021A165002161620021A16200215F
:104B4000E16200213022A15400213122A154002130
:104B50003222A15440213322A15440213422A154B5
:104B60000021A16310BDF8B54948006803F0FFFDBE
:104B70006A4600214748006803F0E4FEF8E70000B9
:104B8000F8B505000C00002006003320285C070063
:104B90003220285C00280BD0022821D01DD3042805
:104BA0001BD01DD306281BD017D3072818D061E0CF
:104BB000280003F022FD33202C543320285C03F01E
:104BC0008AFE33480068854203D1280003F0BCFC0C
:104BD00002E0280003F0D2FC4EE033202C544BE0DE
:104BE00033202C543020285C401E0AD0401E3DD07B
:104BF000801E0AD0401E012803D9801E36D0401ED8
:104C000035D1280003F0B2FB33E0280003F0AEFBFF
:104C1000E86A0069060020003900C0B2C9B28842C3
:104C200008D220003321715CC0B288421DD300201D
:104C300006001AE03320305C3900C9B2884214D132
:104C4000300004F0FAF93421715C0200D2B29142D2
:104C500002D23420345C00E0040020003321715C77
:104C6000C0B2884201D10020060002E001E002F05B
:104C7000C1FF01E002F0BEFF3500002D83D1F1BD80
:104C80009C070100004C0020730800005C15010027
:104C9000D04B00205016010030B4036801248C4032
:104CA000E5431D401400E407E40F8C402C430460EE
:104CB00030BC70470268CA401000C007C00F704780
:104CC00010B50400202C03D37F498048FCF72AFC50
:104CD0000120A04010BD80B512217D48FFF7EAFFFA
:104CE0000028F9D101BD80B5FFF7F5FF78480068CD
:104CF000000C8007800F02BD70B5060001257548C5
:104D0000864203D200200500002405E07248864256
:104D100001D2012400E002242A0010216F48FFF78D
:104D2000BBFFAB4800686E49014020060843A84914
:104D3000086070BDA7480068704780B504F0ABF903
:104D4000A3490968090AC906C90E491C484302BD9E
:104D500038B5984800F0B6FA04002000C0B2072821
:104D600005D0092807D104F096F9050009E0FFF7FE
:104D7000E1FF050005E00025FF21F8319648FCF72A
:104D8000D1FB280032BD70B50600002E0ED193482D
:104D900000F098FA04002000C0B201280CD00428CA
:104DA00010D007280AD0082810D013E08C498A4870
:104DB000FCF7B8FB002013E0002510E0FFF7BAFF76
:104DC00005000CE004F087F9050008E0FFF7B5FFE7
:104DD000050004E0002583497F48FCF7A3FB280079
:104DE00070BDF8B507000E0081480068C021890435
:104DF000014000910024052C10D27B48082161431A
:104E0000401800793100C9B2884205D1764808219E
:104E100061434058B84201D2641CECE7052C05D12F
:104E2000032572496C48FCF77DFB04E06E480821BD
:104E300061434018457928066D490968284A0A40A7
:104E400002436B490A60F1BD10B56B480068002849
:104E500001D0012400E0002466486749086004F09E
:104E600018F90021FFF7BDFF2000C0B2002802D0D2
:104E700000206149086010BD70B506000C005E4856
:104E80000068002801D0012500E0002559485A4952
:104E9000086021003000FFF7A4FF2800C0B20028FE
:104EA00002D000205449086070BD544800680009D1
:104EB0008007800F704751490968302291430201F1
:104EC0000A434E490A60704737070000140A010080
:104ED00004300E400148E8010190D00300400E402C
:104EE000FFFFFFFCF8B50600002730004449884268
:104EF00005D04449884202D04349884200D104E0A9
:104F00008021C9003448FCF70DFB300000F0DAF9CD
:104F1000040030003A49884206D03A49884209D014
:104F2000394988420CD011E0384800684007400FEA
:104F300004000FE0364800684007400F040009E015
:104F4000344800684007400F040003E0324922481B
:104F5000FCF7E8FA002C23D0022C08D003D3042C51
:104F600009D00CD31EE004F0BAF805001FE004F0ED
:104F7000BCF805001BE004F0B5F8050017E004F0EC
:104F800079F8050012480068000E8007800F401C69
:104F9000FFF796FE01002800FDF7F9FE050006E088
:104FA000002504E000251D490B48FCF7BBFA28004A
:104FB000F2BD000006000C0000B519490968C907D8
:104FC00004D41849096801400029FAD100BD000045
:104FD00000410E40D8040020480A010098002E002D
:104FE000170200002E020000440D01000F03000014
:104FF00004000040711B00004000004024400E40AF
:1050000002001A0003001C000500200080400E4032
:1050100084400E4088400E402F04000087040000AA
:1050200044410E4040410E40F8B506000F000025F7
:10503000300A0007000F01280ED0022810D00528E2
:105040000CD0062810D0072812D0092814D00A281E
:1050500017D00E2806D016E0874C19E0874C17E0D1
:10506000874C15E0874C13E0874C012005000FE0CA
:10507000864C102005000BE0854C80204002050086
:1050800006E0844C04E084498448FCF74BFA0EE0C7
:10509000300BC006C00E0090002D02D02800FFF794
:1050A0008BFF3A00D2B200992000FFF7F5FDF1BD69
:1050B000000038B50400F82080032040002840D0CC
:1050C00080218902884250D08021C90288423CD088
:1050D00080210903884244D0A0210903884250D08E
:1050E000C0210903884200D1A9E0E02109038842D8
:1050F00000D1A8E090214903884253D0A021490360
:10510000884254D0B0214903884270D0D02149034D
:10511000884242D0E0214903884263D0802189033C
:10512000884200D186E0A8218903884250D0B0216E
:10513000890388426CD0B8218903884200D186E077
:1051400091E003F0A8FF050093E003F0A4FF5449A9
:105150000968090AC905C90D491CFDF718FE0500B3
:1051600087E003F098FF050083E003F094FF4D49CA
:105170000968090AC905C90D491CFDF708FE0500A3
:1051800077E003F088FF48490968090AC906C90E93
:10519000491CFDF7FCFD05006BE04448FFF7A2FE4B
:1051A000050066E04248FFF79DFE050061E03F48CC
:1051B000FFF798FE05003F48006800090007000F50
:1051C000FFF77EFD01002800FDF7E1FD050050E03E
:1051D0003648FFF787FE0500364800688007800FD5
:1051E000C54046E03448FFF77DFE050041E0324807
:1051F000FFF778FE05003148006800098007800F3E
:10520000FFF75EFD01002800FDF7C1FD050030E05D
:105210002948FFF767FE050028480068000A800754
:10522000800F001DFFF74CFD01002800FDF7AFFDCA
:1052300005001EE01E48FFF755FE050019E0FFF7C8
:1052400087FD050015E0FFF775FD050011E0002062
:10525000FFF799FD1A4909688907890F491CFDF76D
:1052600096FD050005E00025922109010B48FCF799
:1052700059F9280032BD000000400E40B0400E40F9
:10528000C0400E40C4400E40E0400E40E8400E409A
:10529000F0400E4050410E402B080000480A01002B
:1052A0000C410E4008410E4014410E4002001A000D
:1052B0000500200020410E4003001C0028410E4044
:1052C0005C410E40F8B50400012627073F0F380067
:1052D00001280AD002281BD003282CD0052841D051
:1052E000062852D008285ED074E03F480068400786
:1052F000400F022808D009D3042801D002D305E0CA
:10530000022504E0032502E0042500E0052566E00F
:10531000364800684007400F012804D0022804D016
:10532000042804D005E0032504E0022502E00A2554
:1053300000E0012553E02E4800684007400F012897
:1053400006D00DD3032809D004D3042804D007E0E5
:10535000032506E0022504E00A2502E0062500E018
:1053600001253CE0234800684007400F012804D095
:10537000022804D0042804D005E0032504E0022517
:1053800002E00A2500E0012529E01B4800688007AB
:10539000800F002803D0012803D1092502E007254A
:1053A00000E001251BE00F48006830210140002982
:1053B00006D0102906D0202906D0302906D007E0D3
:1053C000012506E0072504E0042502E0082500E0A9
:1053D000012504E000250949A048FCF7A3F82800AE
:1053E000C0B2F2BD5C410E4094400E4080400E4081
:1053F00084400E4088400E4070400E40D10C0000AA
:10540000F1B584B00D00032001900327002400268D
:105410000498112819D12800C0B2042803D103F040
:105420005AFE06000BE02800C0B2052807D100F0A4
:105430007DF98B49884202D300F078F90600002EEE
:1054400003D00021300003F083FE04980007000F12
:105450000290029801280CD0022860D0032876D050
:10546000052868D0062800D1ACE0082800D1BEE0AD
:10547000EDE02800C0B2022808D003280BD0042891
:105480000ED0052814D00A281AD01EE0042001905E
:10549000002007001EE0032001900120070019E012
:1054A00002200190022007006E48FFF725FC11E062
:1054B00001200190032007006A48FFF71DFC09E066
:1054C00069496648FCF72EF8C5E068496348FCF76F
:1054D00029F8C0E0012201213800C0B200F0EEF945
:1054E000FFF7B2FC002E01D0FFF7F5FB01986049F1
:1054F00008606048FFF7DDFDFFF7FEFB03F0BAFD33
:105500000390FFF7F0FBC0B201000398FFF7B4FC73
:10551000002E03D10121002003F01AFE9BE0002C95
:1055200001D1554CFFE72800C0B2062803D15349EA
:105530004A48FBF7F7FF002C01D1514CFFE7280048
:10554000C0B2062803D14F494448FBF7EBFF002CBB
:1055500001D14D4CFFE72800C0B2012808D0022835
:1055600009D003280FD0062815D00A281FD021E023
:105570000020009023E001220121002000F09EF98C
:10558000022000901BE001220121012000F096F989
:105590000120009013E003F06DFDFFF7ADFB012249
:1055A00000213A48FFF778FB0320009007E0042031
:1055B000009004E036492948FBF7B4FF4BE000981F
:1055C000206048E02800C0B2072802D0092804D093
:1055D00007E000202F49086008E001202D490860FD
:1055E00004E02D491D48FBF79DFF34E033E028001F
:1055F000C0B2012806D004280FD0072805D00828FB
:1056000013D015E00020009017E0012201210420B2
:1056100000F054F9012000900FE001220121022046
:1056200000F04CF90220009007E00320009004E015
:105630001A490A48FBF776FF0DE019480068302147
:1056400088430099090101431548016003E01549A9
:105650000248FBF767FF05B0F0BD0000480A0100F3
:10566000012D31010148E801760D00007B0D00009D
:1056700074400E400005080080400E40AD0D000053
:1056800088400E40C10D000084400E40B0400E40E6
:10569000EE0D000070400E40780E0000D60E0000A7
:1056A0005C410E408C0F000000B501000800654A07
:1056B00090421ED0654A90421BD0654A904218D055
:1056C000644A904218D0644A904218D0634A90428B
:1056D00018D0634A904218D0624A904218D0624A69
:1056E000904218D0614A904218D0614A904218D036
:1056F0001AE06048006818E05F48006815E05F48FD
:10570000006812E05E4800680FE05E4800680CE048
:105710005D48006809E05D48006806E05C48006894
:1057200003E05C48006800E0002000BD5A480068C3
:1057300070470000F8B504002000FFF7B5FF050032
:10574000002D03D00020C043854203D15349544863
:10575000FBF7E8FE504806684F4804601120FFF749
:10576000B1FD052801D1FFF76FFB18213448FFF781
:10577000A1FA0028F9D10020C043854203D149494C
:105780004748FBF7CFFE20002E49884206D02F491C
:10579000884209D02E4988420CD00FE04248284068
:1057A0008025ED04054309E03F4828408025AD04ED
:1057B000054303E028003C4D0540FFE71120FFF7BB
:1057C00081FD052802D12000FFF796FAA64203D2F8
:1057D0000121200003F0BCFC344805601120FFF7D4
:1057E00071FD05281FD103F045FC0700BC4203D220
:1057F0002F492B48FBF796FE27480068B84203D292
:105800002C492748FBF78EFE23480068844203D0CA
:1058100029492348FBF786FEFFF765FA0100C9B264
:105820003800FFF729FB0848FFF743FCFFF764FA4D
:10583000A64203D30121002003F08AFCF1BD000041
:1058400040410E4040420F000005080080841E00C9
:1058500000093D00C0CF6A00405DC6000024F4008E
:10586000C0EA210180BA8C010048E80180D54302DA
:10587000006CDC023082E00F3C82E00F4882E00FD7
:105880004C82E00F5082E00F5882E00F5C82E00F04
:105890006082E00F6482E00F180500201011000004
:1058A000480A01001F110000FFFFFFF910400E40E1
:1058B0004B1100004C1100004D110000F7B582B0F3
:1058C0006846007A002819D0022808D011D304288D
:1058D0000AD01AD201260227012500241AE0042644
:1058E00008270325022415E0102620270525042477
:1058F00010E040268027072506240BE0802676004E
:105900008027BF000925082404E085498648FBF765
:1059100009FE64E06846007B002858D000206946F4
:1059200008706846007A022817D1FFF7BEFA0128EE
:1059300013D17C480068400503D47C497A48FBF7C2
:10594000F1FD012069460870364800688007800F25
:10595000032802D10220FFF7AEFA75480660210045
:105960007448FFF7A7F90028F9D06846007C0028A2
:1059700035D029006F48FFF79DF90028F9D0684617
:10598000007A02282BD168460078002827D02548C5
:1059900000688007800F032803D00021022000F058
:1059A00099F8022000F01DF8019001220021022048
:1059B000FFF784FF0199022000F036F85C4806608A
:1059C00029005C48FFF776F9002808D1F8E7584825
:1059D000076021005748FFF76DF90028F9D105B09D
:1059E000F0BD38B504002000C0B2012804D003285F
:1059F00007D004280AD00EE04F480068C505ED0D19
:105A00000EE04E48006845066D0E09E04C480068FF
:105A100045066D0E04E000254A494348FBF782FD28
:105A2000280032BD24400E4038B505000C00280087
:105A3000C0B2012804D003281AD004282ED043E095
:105A400080208000844203D33F494048FBF76AFD31
:105A5000E405E40D1A213E48FFF72CF90028F9D19E
:105A600035480068400A40022043334908602FE06F
:105A7000802C03D337493548FBF754FD6406640E88
:105A800018213348FFF716F90028F9D12B48006890
:105A90007F21884320432949086019E0802C03D3E3
:105AA0002D492A48FBF73EFD6406640E192128485B
:105AB000FFF700F90028F9D1214800687F218843C9
:105AC00020431F49086003E024492048FBF72AFDD2
:105AD00031BD000070B506000C003000C0B20228D5
